:100000000C9453000C9450030C9429030C947B0023
:100010000C947B000C947B000C94CF030C947B001D
:100020000C947B000C947B000C947B000C947B0064
:100030000C947B000C947B000C947B000C947B0054
:100040000C94DF020C947B000C949D030C947703BA
:100050000C947B000C947B000C947B000C947B0034
:100060000C947B000C947B0000000000250028000D
:100070002B0000000000240027002A0004040404D0
:100080000404040402020202020203030303030342
:10009000010204081020408001020408102001021F
:1000A00004081020970411241FBECFEFD8E0DEBF54
:1000B000CDBF11E0A0E0B1E0E2EFF9E002C00590B1
:1000C0000D92A631B107D9F721E0A6E1B1E001C058
:1000D0001D92A93CB207E1F710E0C3E5D0E004C0EF
:1000E0002197FE010E94EC04C235D107C9F70E9496
:1000F000E6030C94F7040C9400008E3008F08E5048
:100100008770806480937C0080917A008064809303
:100110007A0080917A0086FDFCCF80917800209152
:10012000790090E0922B08953FB7F8948091C50133
:100130009091C601A091C701B091C80126B5A89BB6
:1001400005C02F3F19F00196A11DB11D3FBFBA2F69
:10015000A92F982F8827820F911DA11DB11DBC01C9
:10016000CD0142E0660F771F881F991F4A95D1F78E
:1001700008950895CF92DF92EF92FF920F931F930D
:10018000CF93DF936C017A018B01C0E0D0E0CE15F4
:10019000DF0581F0D8016D918D01D601ED91FC91C3
:1001A0000190F081E02DC6010995892B11F021966F
:1001B000EECF7E01C701DF91CF911F910F91FF908C
:1001C000EF90DF90CF900895089580E090E008953B
:1001D000FC01538D448D252F30E0842F90E0821B4D
:1001E000930B541710F0CF96089501970895FC01D2
:1001F000918D828D981761F0828DDF01A80FB11D5E
:100200005D968C91928D9F5F9F73928F90E0089581
:100210008FEF9FEF0895FC01918D828D981731F03B
:10022000828DE80FF11D858D90E008958FEF9FEF8F
:100230000895FC01918D228D892F90E0805C9F4F65
:10024000821B91098F739927089582E291E00E94A1
:10025000190121E0892B09F420E0822F0895FC0187
:10026000848DDF01A80FB11DA35ABF4F2C91848D3F
:1002700090E001968F739927848FA689B7892C9374
:10028000A089B1898C91837080648C93938D848DC7
:10029000981306C00288F389E02D80818F7D8083CA
:1002A0000895EF92FF920F931F93CF93DF93EC018A
:1002B00081E0888F9B8D8C8D981305C0E889F98922
:1002C000808185FD26C0F62E0B8D10E00F5F1F4F3D
:1002D0000F731127E02E8C8DE8120CC00FB607FCAF
:1002E000FACFE889F989808185FFF5CFCE010E9498
:1002F0002F01F1CF8B8DFE01E80FF11DE35AFF4F67
:10030000F0829FB7F8940B8FEA89FB898081806225
:100310000AC09FB7F894EE89FF896083E889F9895C
:1003200080818370806480839FBF81E090E0DF9153
:10033000CF911F910F91FF90EF900895CF93DF938E
:10034000EC01888D8823C9F0EA89FB89808185FDCD
:1003500005C0A889B9898C9186FD0FC00FB607FC2E
:10036000F5CF808185FFF2CFA889B9898C9185FF6F
:10037000EDCFCE010E942F01E7CFDF91CF910895FD
:1003800080E090E0892B29F00E94250181110C94D6
:10039000000008954115510529F4EAE7F0E0808155
:1003A0008F7780836A307105A9F063FD02C088E011
:1003B00001C088E26770682B88E10FB6F894A895B1
:1003C000809360000FBE60936000E0E6F0E0808103
:1003D00080648083232BA1F483B7817F846083BFF3
:1003E000F89483B7816083BF85B7806685BF8F7DB2
:1003F00085BF7894889583B78E7F83BF78940EC02D
:1004000083B7817F846083BFF89483B7816083BFA3
:100410007894889583B78E7F83BF7894452B29F491
:10042000EAE7F0E080818068808308958F929F9250
:10043000AF92BF92CF92DF92EF92FF92CF93DF9372
:100440001092210110922001C0912001D091210130
:10045000C530D1050CF06DC080E00E947D00209178
:100460001E0130911F01820F931F90931F018093F3
:100470001E0181E00E947D0020911C0130911D0130
:10048000820F931F90931D0180931C0182E00E94B4
:100490007D0020911A0130911B01820F931F9093D0
:1004A0001B0180931A0183E00E947D0020911801B6
:1004B00030911901820F931F9093190180931801B5
:1004C00083E00E947D002091160130911701820F78
:1004D000931F90931701809316010E9494004B0183
:1004E0005C0184E6C82ED12CE12CF12C0E949400F2
:1004F000DC01CB0188199909AA09BB09883E934000
:10050000A105B10598F321E0C21AD108E108F1086C
:1005100088EE880E83E0981EA11CB11CC114D10482
:10052000E104F10419F72196D0932101C093200131
:100530008BCF80911E0190911F0126E030E0B90120
:100540000E94C40470931F0160931E0180911C01DE
:1005500090911D01B9010E94C40470931D01609324
:100560001C0180911A0190911B01B9010E94C404E1
:1005700070931B0160931A018091180190911901E9
:10058000B9010E94C404709319016093180180910D
:10059000160190911701B9010E94C40470931701CC
:1005A00060931601DF91CF91FF90EF90DF90CF9095
:1005B000BF90AF909F908F9008950E94F2041F9279
:1005C0000F920FB60F9211242F933F938F939F9307
:1005D000AF93BF938091C1019091C201A091C301DB
:1005E000B091C4013091C00123E0230F2D3720F4D6
:1005F0000196A11DB11D05C026E8230F0296A11D7D
:10060000B11D2093C0018093C1019093C201A093BA
:10061000C301B093C4018091C5019091C601A0911E
:10062000C701B091C8010196A11DB11D8093C501FC
:100630009093C601A093C701B093C801BF91AF9139
:100640009F918F913F912F910F900FBE0F901F9010
:1006500018951F920F920FB60F9211242F933F936C
:100660004F935F936F937F938F939F93AF93BF93BA
:10067000EF93FF93E0910201F09103010995FF913F
:10068000EF91BF91AF919F918F917F916F915F910A
:100690004F913F912F910F900FBE0F901F90189583
:1006A0001F920F920FB60F9211242F933F934F93E7
:1006B0005F936F937F938F939F93AF93BF93EF93CA
:1006C000FF93E0910001F09101010995FF91EF91F5
:1006D000BF91AF919F918F917F916F915F914F915A
:1006E0003F912F910F900FBE0F901F9018951F9262
:1006F0000F920FB60F9211242F933F934F935F9356
:100700006F937F938F939F93AF93BF93EF93FF93D9
:1007100082E291E00E942F01FF91EF91BF91AF9192
:100720009F918F917F916F915F914F913F912F9109
:100730000F900FBE0F901F9018951F920F920FB63B
:100740000F9211242F938F939F93EF93FF93E09138
:100750003201F09133018081E0913801F09139014B
:1007600082FD12C0908180913B018F5F8F73209139
:100770003C01821751F0E0913B01F0E0EE5DFE4F4D
:10078000958F80933B0101C08081FF91EF919F91F4
:100790008F912F910F900FBE0F901F9018951F9261
:1007A0000F920FB60F9211248F930FB6F894A8955D
:1007B00080916000886180936000109260000FBE9D
:1007C0008F910F900FBE0F901F901895789484B55D
:1007D000826084BD84B5816084BD85B5826085BD3D
:1007E00085B5816085BD80916E00816080936E00CB
:1007F00010928100809181008260809381008091BD
:10080000810081608093810080918000816080936D
:1008100080008091B10084608093B1008091B0002D
:1008200081608093B00080917A00846080937A0028
:1008300080917A00826080937A0080917A00816052
:1008400080937A0080917A00806880937A00109279
:10085000C100E0913201F091330182E08083E091A8
:100860002E01F0912F011082E0913001F0913101C1
:100870008FEC808310923A01E0913601F0913701BC
:1008800086E08083E0913401F091350180818061C0
:100890008083E0913401F09135018081886080830C
:1008A000E0913401F0913501808180688083E0918E
:1008B0003401F091350180818F7D8083E2E9F0E0A1
:1008C0002491EEE7F0E084918823C1F090E0880F56
:1008D000991FFC01EE58FF4FC591D491FC01E859D6
:1008E000FF4FA591B4919FB7F8948881E22FE095CE
:1008F0008E2388838C91E823EC939FBF86E192E05E
:10090000909301018093000180916900836080933E
:100910006900E89A20E030E040E050E06AE070E0F2
:100920008FEB91E00E94CA010E94C001F3CFE2E286
:10093000F1E01382128288EE93E0A0E0B0E08483BD
:100940009583A683B78388E091E09183808385ECCB
:1009500090E09587848784EC90E09787868780EC89
:1009600090E0918B808B81EC90E0938B828B82EC7A
:1009700090E0958B848B86EC90E0978B868B118E24
:10098000128E138E148E089597FB072E16F4009482
:1009900007D077FD09D00E94D80407FC05D03EF4AB
:1009A000909581959F4F0895709561957F4F08951B
:1009B000AA1BBB1B51E107C0AA1FBB1FA617B70785
:1009C00010F0A61BB70B881F991F5A95A9F78095A1
:1009D0009095BC01CD010895EE0FFF1F0590F49195
:1009E000E02D099481E090E0F8940C94F704F894D9
:0209F000FFCF37
:1009F200B900B900000000005101BA00E8009E01F0
:060A02001901F7000B01D1
:00000001FF
